:100000000C9463000C948B000C948B000C948B006C
:100010000C948B000C948B000C948B000C948B0034
:100020000C948B000C948B000C948B000C94930517
:100030000C948B000C948B000C948B000C948B0014
:100040000C9404080C948B000C94F70A0C94290B64
:100050000C948B000C948B000C948B000C948B00F4
:100060000C948B000C948B0000000008000201002F
:100070000003040700000000000000000102040863
:100080001020408001020408102001020408102002
:10009000040404040404040402020202020203032E
:1000A00003030303000000002300260029000000D2
:1000B0000000250028002B0000000000240027007D
:1000C0002A008405590B11241FBECFEFD8E0DEBFF4
:1000D000CDBF12E0A0E0B1E0E4E7FFE102C005908F
:1000E0000D92AE32B107D9F726E0AEE2B2E001C020
:1000F0001D92AC35B207E1F710E0C6ECD0E004C0C9
:100100002297FE010E94A50FC23CD107C9F70E94A9
:100110009D0B0C94B80F0C940000CF92DF92EF92DD
:10012000FF920F931F93CF93DF930CE715E0C4E882
:10013000D5E08CE5E82E85E0F82E94E5C92E95E013
:10014000D92EF801619171918F0124EC39E044EFCF
:1001500051E0CE010E946B06F701619171917F0120
:10016000CE010E941C07F601119211926F01239695
:10017000F5E004381F0729F7DF91CF911F910F9108
:10018000FF90EF90DF90CF9008958BE090E09093F8
:100190007D0580937C0510926D0510926C0524EB13
:1001A00030E030936505209364058AE590E09093F4
:1001B0005D0580935C054AE050E050937F054093D5
:1001C0007E0510926F0510926E053093670520939F
:1001D000660590935F0580935E0549E050E050937B
:1001E000810540938005109271051092700530933F
:1001F000690520936805909361058093600545E04B
:1002000050E050938305409382051092730510923D
:10021000720530936B0520936A0590936305809374
:100220006205E2E3F2E011821082138212821582EB
:10023000148217821682389685E0E235F80799F71E
:100240000C948D00882319F065E070E002C06DE227
:1002500070E08DE895E00C941C0768EE73E080E098
:1002600090E00E94710865E070E08DE895E00E94E2
:100270001C0766E970E080E090E00E94710880E071
:100280000E94220166E970E080E090E00E9471081F
:1002900065E070E08DE895E00E941C0766E970E07B
:1002A00080E090E00E94710880E00E94220166E9EF
:1002B00070E080E090E00C9471087F928F929F92A2
:1002C000AF92BF92CF92DF92EF92FF920F931F9364
:1002D000CF93DF93C4E5D5E034E6832E35E0932E4B
:1002E0004CE6A42E45E0B42E54E7E52E55E0F52E5D
:1002F00064E8C62E65E0D62E00E010E0712C802F59
:100300000E94D408998388836FE471E08FEB95E0B5
:100310000E94EA0B4AE050E0B8018FEB95E00E94A2
:10032000BC0C62E571E08FEB95E00E94EA0B6881FE
:1003300079814AE050E08FEB95E00E94BC0C65E5C6
:1003400071E08FEB95E00E94EA0BC6010E949E07C8
:10035000F70191838083288139812D3BF2E03F07AB
:1003600044F0F50120813181281739077CF4019789
:100370000AC02C32314064F4F401208131818217AB
:10038000930724F40196F701918380837724739473
:100390000F5F1F4F2296F3E0CF0ED11C42E0E40E18
:1003A000F11C82E0880E911CE2E0AE0EB11C04301C
:1003B000110509F0A4CF67E571E08FEB95E00E948D
:1003C000070C772009F43FC024E8E22E25E0F22E46
:1003D00004E715E0C0E0D0E068E571E08FEB95E060
:1003E0000E94EA0B4AE050E0BE018FEB95E00E94CC
:1003F000BC0C62E571E08FEB95E00E94EA0B6801AE
:10040000F801619171918F014AE050E08FEB95E026
:100410000E94BC0C65E571E08FEB95E00E94EA0B51
:10042000F60160817181C7010E941C072196F3E0EB
:10043000EF0EF11CC430D10579F667E571E08FEB62
:1004400095E00E94070C60E170E080E090E0DF91B1
:10045000CF911F910F91FF90EF90DF90CF90BF90C1
:10046000AF909F908F907F900C947108CF93C0E0D5
:100470008C2F0E94D4088D3B924054F020910401AF
:10048000309105012F5F3F4F309305012093040108
:100490008C2F0E94D4088C32914054F42091040196
:1004A0003091050121503109309305012093040159
:1004B000CF5FC430E9F680910401909105011816D0
:1004C000190614F081E090E08B30910514F08AE079
:1004D00090E09093050180930401CF9108952F92AD
:1004E0003F924F925F926F927F928F929F92AF92C4
:1004F000BF92CF92DF92EF92FF920F931F93CF9311
:10050000DF93CDB7DEB76E970FB6F894DEBF0FBEA0
:10051000CDBF9C8B8B8B4B010E943602F4018281F4
:100520009381EB89FC8922813381821B930B97FF96
:1005300003C0919581959109F40124813581EB895E
:10054000FC8944815581241B350B37FF03C031954D
:1005500021953109821793070CF4C901F401208118
:100560003181EB89FC8940815181241B350B37FF98
:1005700003C0319521953109821793070CF4C90105
:1005800060910401709105010E942F0F1B01161646
:1005900017061CF022242394312C9E01235F3F4F29
:1005A0003A8B298B8E010F5F1F4FAB88BC882101CE
:1005B000662457FC6094762CF401619171914F018F
:1005C000F501819191915F01681B790B882777FD77
:1005D0008095982F0E94240E6B017C01C301B2010B
:1005E0000E94240E9B01AC01C701B6010E94890D37
:1005F000F80161937193819391938F0129893A89CD
:10060000E217F307C9F601E010E02CE635E0388F79
:100610002F8B74E6C72E75E0D72EE4E8EE2EE5E0CA
:10062000FE2ECE0101969E8B8D8BEB89FC89FA8F75
:10063000E98F2801662457FC6094762CE98DFA8DA9
:1006400061917191FA8FE98FED89FE892191319144
:1006500041915191FE8BED8B882777FD8095982FE6
:100660002B8F3C8F4D8F5E8F0E94240E4B015C01BF
:10067000C301B2010E94240E2B8D3C8D4D8D5E8DE9
:100680000E94B00E9B01AC01C501B4010E94250D72
:100690000E94F10DEF89F88D21913191F88FEF8B48
:1006A000621773074CF0F601208131812617370756
:1006B0001CF0C7010E941C07F2E0CF0ED11C23E002
:1006C000E20EF11C8D899E89E989FA898E179F07B0
:1006D00009F0B4CF64E170E080E090E00E9471081E
:1006E0000F5F1F4F201631060CF08FCF64E170E0D2
:1006F00080E090E06E960FB6F894DEBF0FBECDBFDF
:10070000DF91CF911F910F91FF90EF90DF90CF90ED
:10071000BF90AF909F908F907F906F905F904F9021
:100720003F902F900C94710880912E0281110EC081
:1007300084E00E948909892B29F082E00E948909BE
:10074000892B21F481E080932E02089584E00E9499
:100750008909019739F482E00E948909019711F40F
:1007600010922E0280E00895EF92FF920F931F9354
:10077000CF93DF9361E083E00E9453096FE571E05E
:100780008FEB95E00E94EA0B60913002709131028C
:100790004AE050E08FEB95E00E94C40C64E871E001
:1007A0008FEB95E00E94EA0B6091040170910501C6
:1007B0004AE050E08FEB95E00E94C40C809130023B
:1007C0009091310203E0880F991F0A95E1F762E3E7
:1007D00072E0865D9D4F0E946F0200E010E0C4EF62
:1007E000D1E08091300290913102019708171907EA
:1007F0004CF50E949403882369F0109253051092DF
:10080000520510922F02DF91CF911F910F91FF900F
:10081000EF90089578018FEFE81AF80AB701B3E076
:10082000660F771FBA95E1F76E5C7D4FC80113E044
:10083000880F991F1A95E1F78E5C9D4F0E946F02F9
:100840008701CFCF6091040170910501CE010E9414
:100850002F0F882777FD8095982F0E94710880912F
:10086000300290913102A3E0880F991FAA95E1F719
:1008700062E372E0865D9D4F0E946F026091040109
:1008800070910501CE010E942F0F882777FD80957A
:10089000982F0E947108E12CF12CD2CFFF920F9378
:1008A0001F93CF93DF9380915205811167C0809190
:1008B0005305882309F469C084E00E948909892BC3
:1008C00021F481E08093520560C082E00E94890992
:1008D000FF24F394892B09F0F12C80912E028111D1
:1008E0004AC0FF2009F447C0809130029091310244
:1008F00084369105ECF564E971E08FEB95E00E9498
:10090000EA0B60913002709131024AE050E08FEBC7
:1009100095E00E94C40C04E815E0C0E0D0E0C801F6
:100920000E949E07E0913002F0913102EE0FFF1F0E
:10093000EE0FFF1FEC0FFD1FEE0FFF1FEE5CFD4FD4
:100940009183808321960D5F1F4FC430D10539F705
:1009500067E571E08FEB95E00E94070C8091300213
:10096000909131020196909331028093300203C03E
:1009700081E080935205F0922E0207C0DF91CF9163
:100980001F910F91FF900C94B403DF91CF911F91B1
:100990000F91FF9008950E945D010C944E040F93F7
:1009A0001F93CF93DF936AEA71E08FEB95E00E948B
:1009B000EA0B4AE050E069E070E08FEB95E00E94BE
:1009C000C40C66E071E08CE595E00E946F0200E0E7
:1009D00010E00E949403882359F01092530510925E
:1009E000520510922F02DF91CF911F910F91089520
:1009F000E8012196BE0143E0660F771F4A95E1F7B3
:100A00006A5F7E4FC80153E0880F991F5A95E1F73E
:100A10008A5F9E4F0E946F02C830D10514F48E0188
:100A2000D8CFC0E0D0E0FBCF26E040E052EC61E060
:100A300070E08FEB95E00E94950A62E082E00E94F0
:100A40001A0962E084E00E941A0961E083E00E94D2
:100A50001A0961E083E00E94530961EC71E08FEBB9
:100A600095E00E94070C82E00E9489094AE050E06C
:100A7000BC018FEB95E00E94BC0C65E571E08FEB4B
:100A800095E00E94EA0B84E00E9489094AE050E068
:100A9000BC018FEB95E00E94C40C0E94C50082E06F
:100AA0000E948909892BB1F41092530581E080934B
:100AB0002E02109231021092300268EE73E080E054
:100AC00090E00E94710860E083E00E94530963EDAA
:100AD00071E016C084E00E948909892B69F481E0E5
:100AE00080932F0280932E0269EE71E08FEB95E0E8
:100AF0000E94070C0C94CF040E942D0160E072E06C
:100B00008FEB95E00C94070CCF93DF93C4E8D5E00E
:100B1000CE010E944F06239685E0C039D807C1F761
:100B2000DF91CF9108951F920F920FB60F9211246B
:100B30002F933F934F935F936F937F938F939F93E5
:100B4000AF93BF93EF93FF938091910587FF05C00B
:100B500010928500109284001AC0209191053327CD
:100B600027FD30958091900590E0281739077CF497
:100B700080919105992787FD9095FC01EE0FFF1F4D
:100B8000E80FF91FEE56FA4F808186FD15C080915F
:100B900091058F5F8093910520919105332727FD63
:100BA00030958091900590E028173907BCF480912A
:100BB00091058C305CF112C080919105992787FDD9
:100BC0009095FC01EE0FFF1FE80FF91FEE56FA4F4C
:100BD000808160E08F730E945309D9CF8091840097
:100BE00090918500049680349C4918F480E49CE937
:100BF00005C08091840090918500049690938900AF
:100C0000809388008FEF8093910538C020918400F5
:100C10003091850080919105992787FD9095FC0181
:100C2000EE0FFF1FE80FF91FEE56FA4F81819281F8
:100C3000820F931F90938900809388008091910583
:100C4000992787FD9095FC01EE0FFF1FE80FF91F14
:100C5000EE56FA4F808186FF11C080919105992749
:100C600087FD9095FC01EE0FFF1FE80FF91FEE5670
:100C7000FA4F808161E08F730E945309FF91EF91D9
:100C8000BF91AF919F918F917F916F915F914F91A4
:100C90003F912F910F900FBE0F901F9018952091AC
:100CA00090052C30A0F431E0320F30939005FC0118
:100CB0002083822F90E0FC01EE0FFF1FE80FF91F49
:100CC000EE56FA4F88EB9BE09283818308952FEFD5
:100CD000FC0120830895DF92EF92FF920F931F9300
:100CE000CF93DF93EC01D62E7A01890188818C3075
:100CF00008F066C061E08D2D0E941A098881A82F36
:100D0000B0E0FD01EE0FFF1FEA0FFB1FEE56FA4F9A
:100D10002D2D2F739081907C922B908360E272E056
:100D20006E197F0977FF02C06D5F7F4F75956795DC
:100D300075956795698340E659E0401B510B57FF55
:100D400002C04D5F5F4F55954795559547954A832E
:100D50006CE00E94230F9CE0899FB001112420E0E9
:100D600030E0A901460F571FFA01EE0FFF1FE40FF5
:100D7000F51FEE56FA4F908196FD16C02F5F3F4F3C
:100D80002C30310571F781110FC01092800082E084
:100D9000809381001092850010928400B19A809116
:100DA0006F00826080936F00888190E0FC01EE0FFD
:100DB000FF1FE80FF91FEE56FA4F80818064808391
:100DC0008881DF91CF911F910F91FF90EF90DF907D
:100DD0000895FC0180818C3070F5918128E830E025
:100DE000291B310997FD3395220F331F220F331F23
:100DF000621773077CF0928128E532E0291B3109E4
:100E000097FD3395220F331F220F331F621773078D
:100E10000CF49B0122503109220F331F4FB7F89475
:100E200090E0FC01EE0FFF1FE80FF91FEE56FA4F9E
:100E3000328321834FBF08954F925F926F927F92CA
:100E4000AF92BF92CF92DF92EF92FF920F931F93D8
:100E5000CF93DF93EC01603282E078070CF040C062
:100E600077FD06C0653B71052CF064EB70E002C0B5
:100E700060E070E0898128E830E0281B310987FDB7
:100E80003395220F331F220F331F5901CC24B7FC97
:100E9000C094DC2C882777FD8095982F2A8148E51F
:100EA00052E0421B510927FD5395440F551F440F33
:100EB000551F2A01662457FC6094762C7F926F920E
:100EC0005F924F9214EBE12EF12C00E010E020E055
:100ED00030E0A9010E94DC0C0F900F900F900F9052
:100EE000CE01DF91CF911F910F91FF90EF90DF9096
:100EF000CF90BF90AF907F906F905F904F900C9489
:100F0000E906FC0180818F3FB1F090E0FC01EE0F1B
:100F1000FF1FE80FF91FEE56FA4F8181928143E0DF
:100F2000880F991F4A95E1F754E0969587955A9551
:100F3000E1F70296089580E090E008954F925F9265
:100F40006F927F92AF92BF92CF92DF92EF92FF9219
:100F50000F931F93CF93DF9300D000D0CDB7DEB7B0
:100F6000FC01228148E552E0421B510927FD5395BF
:100F7000440F551F440F551F2A01662457FC6094E7
:100F8000762C418128E830E0241B310947FD339558
:100F9000220F331F220F331F442737FD4095542F54
:100FA00029833A834B835C830E9481070196BC01AD
:100FB000882777FD8095982F1F921F921F92E4EB50
:100FC000EF93A12CB12C65018301720129813A8133
:100FD0004B815C810E94DC0C0F900F900F900F9062
:100FE000CB010F900F900F900F90DF91CF911F9139
:100FF0000F91FF90EF90DF90CF90BF90AF907F90D8
:101000006F905F904F9008951F920F920FB60F92BE
:1010100011242F933F938F939F93AF93BF9380910E
:10102000B7059091B805A091B905B091BA05309176
:10103000B60523E0230F2D3720F40196A11DB11D25
:1010400005C026E8230F0296A11DB11D2093B60509
:101050008093B7059093B805A093B905B093BA05EE
:101060008091BB059091BC05A091BD05B091BE05D6
:101070000196A11DB11D8093BB059093BC05A09363
:10108000BD05B093BE05BF91AF919F918F913F91E8
:101090002F910F900FBE0F901F9018953FB7F894A7
:1010A0008091BB059091BC05A091BD05B091BE0596
:1010B00026B5A89B05C02F3F19F00196A11DB11DB3
:1010C0003FBF6627782F892F9A2F620F711D811DD0
:1010D000911D42E0660F771F881F991F4A95D1F72F
:1010E0000895CF92DF92EF92FF92CF93DF936B013F
:1010F0007C010E944E08EB01C114D104E104F1040B
:1011000089F00E94230D0E944E086C1B7D0B683EE7
:10111000734090F381E0C81AD108E108F108C85182
:10112000DC4FEACFDF91CF91FF90EF90DF90CF902F
:101130000895789484B5826084BD84B5816084BD4F
:1011400085B5826085BD85B5816085BDEEE6F0E040
:10115000808181608083E1E8F0E01082808182609C
:101160008083808181608083E0E8F0E0808181601D
:101170008083E1EBF0E0808184608083E0EBF0E04D
:10118000808181608083EAE7F0E0808184608083F1
:10119000808182608083808181608083808180689B
:1011A00080831092C10008958E3008F08E508770B1
:1011B00020914E0190E4299F90011124822B80936D
:1011C0007C0080917A00806480937A0080917A001C
:1011D00086FDFCCF809178002091790090E0922BE1
:1011E0000895833081F028F4813099F08230A1F0A5
:1011F00008958730A9F08830B9F08430D1F4809117
:1012000080008F7D03C0809180008F778093800065
:10121000089584B58F7702C084B58F7D84BD08950D
:101220008091B0008F7703C08091B0008F7D809354
:10123000B0000895CF93DF9390E0FC01E458FF4F96
:101240002491FC01E057FF4F8491882349F190E0FD
:10125000880F991FFC01E854FF4FA591B491825566
:101260009F4FFC01C591D4919FB7611108C0F894BC
:101270008C91209582238C93888182230AC06230CE
:1012800051F4F8948C91322F309583238C9388817C
:10129000822B888304C0F8948C91822B8C939FBFFF
:1012A000DF91CF9108950F931F93CF93DF931F92F8
:1012B000CDB7DEB7282F30E0F901E859FF4F849110
:1012C000F901E458FF4F1491F901E057FF4F0491E1
:1012D0000023C9F0882321F069830E94F108698105
:1012E000E02FF0E0EE0FFF1FE255FF4FA591B49104
:1012F0009FB7F8948C91611103C01095812301C0B0
:10130000812B8C939FBF0F90DF91CF911F910F91F5
:101310000895CF93DF93282F30E0F901E859FF4F6C
:101320008491F901E458FF4FD491F901E057FF4F40
:10133000C491CC2391F081110E94F108EC2FF0E0D0
:10134000EE0FFF1FEC55FF4FA591B4912C912D236B
:1013500081E090E021F480E002C080E090E0DF9145
:10136000CF910895FC01818D228D90E0805C9F4F8C
:10137000821B91098F7399270895FC01918D828DAD
:10138000981731F0828DE80FF11D858D90E008955A
:101390008FEF9FEF0895FC01918D828D981761F07A
:1013A000828DDF01A80FB11D5D968C91928D9F5F9C
:1013B0009F73928F90E008958FEF9FEF08958FE4D1
:1013C0009BE0892B49F080E090E0892B29F00E9476
:1013D0004F0B81110C9400000895FC01848DDF01F6
:1013E000A80FB11DA35ABF4F2C91848D90E0019698
:1013F0008F739927848FA689B7892C93A089B18987
:101400008C9180648C93938D848D981306C0028890
:10141000F389E02D80818F7D80830895CF93DF93C2
:10142000EC01888D8823C9F0EA89FB89808185FDDC
:1014300005C0A889B9898C9186FD0FC00FB607FC3D
:10144000F5CF808185FFF2CFA889B9898C9185FF7E
:10145000EDCFCE010E94ED09E7CFDF91CF91089546
:10146000CF92DF92FF920F931F93CF93DF931F9240
:10147000CDB7DEB76C01DC015B969C915B975C9607
:101480008C915C97981307C05096ED91FC91519701
:10149000808185FD32C0F601038D10E00F5F1F4F84
:1014A0000F731127F02EF601848DF81211C00FB6BC
:1014B00007FCF9CFD6015096ED91FC9151978081B0
:1014C00085FFF1CFC60169830E94ED096981EBCFE9
:1014D000838DE80FF11DE35AFF4F6083D6015B96C1
:1014E0000C935B975296ED91FC91539780818062AB
:1014F000808381E058968C930DC0D6015696ED916D
:10150000FC91579760835096ED91FC9151978081A3
:101510008064808381E090E00F90DF91CF911F91F4
:101520000F91FF90DF90CF900895BF92CF92DF92FE
:10153000EF92FF92CF93DF93EC016A017B01B22E11
:10154000E889F98982E08083411581EE58076105B9
:101550007105A1F060E079E08DE390E0A7019601CC
:101560000E94430F21503109410951095695479571
:1015700037952795211580E1380798F0E889F98992
:10158000108260E874E88EE190E0A70196010E9465
:10159000430F215031094109510956954795379517
:1015A0002795EC85FD853083EE85FF852083188E99
:1015B000EC89FD89B082EA89FB8980818061808322
:1015C000EA89FB89808188608083EA89FB89808140
:1015D00080688083EA89FB8980818F7D8083DF91A9
:1015E000CF91FF90EF90DF90CF90BF9008951F9222
:1015F0000F920FB60F9211242F938F939F93EF9317
:10160000FF93E091CF05F091D0058081E091D50561
:10161000F091D60582FD12C090818091D8058F5F30
:101620008F732091D905821751F0E091D805F0E031
:10163000E154FA4F958F8093D80501C08081FF91C6
:10164000EF919F918F912F910F900FBE0F901F9050
:1016500018951F920F920FB60F9211242F933F935C
:101660004F935F936F937F938F939F93AF93BF93AA
:10167000EF93FF938FEB95E00E94ED09FF91EF91BF
:10168000BF91AF919F918F917F916F915F914F919A
:101690003F912F910F900FBE0F901F9018958FEBD9
:1016A00095E00E94B20921E0892B09F420E0822F05
:1016B00008951092C2051092C10588EE93E0A0E053
:1016C000B0E08093C3059093C405A093C505B09383
:1016D000C60582E292E09093C0058093BF0585EC39
:1016E00090E09093CC058093CB0584EC90E09093B0
:1016F000CE058093CD0580EC90E09093D00580934B
:10170000CF0581EC90E09093D2058093D10582ECD7
:1017100090E09093D4058093D30586EC90E090936D
:10172000D6058093D5051092D8051092D905109250
:10173000DA051092DB05089508950E9499080E9429
:101740009C0B0E941405CFEDD9E00E94CB0420979A
:10175000E1F30E94DF09F9CFCF92DF92EF92FF927F
:101760000F931F93CF93DF936C017A01EB01E60E89
:10177000F71E00E010E0CE15DF0561F06991D6019B
:10178000ED91FC910190F081E02DC6010995080FC3
:10179000191FF1CFC801DF91CF911F910F91FF90D9
:1017A000EF90DF90CF9008956115710581F0DB0116
:1017B0000D900020E9F7AD0141505109461B570B30
:1017C000DC01ED91FC910280F381E02D099480E031
:1017D00090E008950C94D40BDC01ED91FC91019004
:1017E000F081E02D09940F931F93CF93DF93EC01C9
:1017F0006DE00E94EC0B8C016AE0CE010E94EC0BC4
:10180000800F911FDF91CF911F910F9108950F933A
:101810001F93CF93DF93EC010E94D40B8C01CE0178
:101820000E94F30B800F911FDF91CF911F910F91B9
:1018300008958F929F92AF92BF92CF92DF92EF92D4
:10184000FF920F931F93CF93DF93CDB7DEB7A1978E
:101850000FB6F894DEBF0FBECDBF7C01C42EE52FBE
:10186000CB01D22E19A221E02D1510F02AE0D22EA4
:101870008E010F5D1F4F8D2C912CA12CB12C6C2D46
:101880007E2FA50194010E94430F8C2DD29E8019BA
:101890001124015011098A3014F4805D01C0895C63
:1018A000F8018083211531054105510521F0C22E33
:1018B000E32FCA01E4CFB801C7010E94D40BA1965F
:1018C0000FB6F894DEBF0FBECDBFDF91CF911F9151
:1018D0000F91FF90EF90DF90CF90BF90AF909F90CF
:1018E0008F900895CF92DF92EF92FF920F931F9304
:1018F000CF93DF93EC016A017B012115310579F467
:10190000E881F9810190F081E02D642FDF91CF9182
:101910001F910F91FF90EF90DF90CF9009942A30A4
:101920003105E9F477FF1AC06DE20E94EC0B8C01DF
:1019300044275527BA014C195D096E097F092AE031
:10194000CE010E94190C800F911FDF91CF911F9142
:101950000F91FF90EF90DF90CF9008952AE0B701AC
:10196000A601CE01DF91CF911F910F91FF90EF90D3
:10197000DF90CF900C94190C9A01AB01662757FDAC
:101980006095762F0C94720C0F931F93CF93DF9377
:10199000EC019A01AB01662757FD6095762F0E94F6
:1019A000720C8C01CE010E94F30B800F911FDF910E
:1019B000CF911F910F9108954F925F926F927F92F6
:1019C000AF92BF92CF92DF92EF92FF920F931F934D
:1019D000CF93DF93CDB7DEB729013A01621B730BBA
:1019E000840B950B29893A894B895C892A193B0913
:1019F0004C095D09298B3A8B4B8B5C8B9B01AC01AD
:101A000069897A898B899C890E94130FE418F508EB
:101A100006091709A80197010E94650F2A0D3B1DB1
:101A20004C1D5D1DCA01B901DF91CF911F910F912E
:101A3000FF90EF90DF90CF90BF90AF907F906F902E
:101A40005F904F90089508955058BB27AA270ED055
:101A50004DC13ED130F043D120F031F49F3F11F41D
:101A60001EF433C10EF4E095E7FB29C1E92F4FD1F5
:101A700080F3BA17620773078407950718F071F4AB
:101A80009EF567C10EF4E0950B2EBA2FA02D0B0129
:101A9000B90190010C01CA01A0011124FF27591BB3
:101AA00099F0593F50F4503E68F11A16F040A22FB9
:101AB000232F342F4427585FF3CF4695379527952A
:101AC000A795F0405395C9F77EF41F16BA0B620B29
:101AD000730B840BBAF09150A1F0FF0FBB1F661F70
:101AE000771F881FC2F70EC0BA0F621F731F841FB3
:101AF00048F4879577956795B795F7959E3F08F0D9
:101B0000B3CF9395880F08F09927EE0F9795879597
:101B100008950CD0EBC0E3D040F0DAD030F021F4DF
:101B20005F3F19F0CCC0511115C1CFC0F0D098F370
:101B30009923C9F35523B1F3951B550BBB27AA274E
:101B400062177307840738F09F5F5F4F220F331FC0
:101B5000441FAA1FA9F333D00E2E3AF0E0E830D08C
:101B600091505040E695001CCAF729D0FE2F27D08F
:101B7000660F771F881FBB1F261737074807AB075D
:101B8000B0E809F0BB0B802DBF01FF2793585F4FD2
:101B90002AF09E3F510568F092C0DCC05F3FECF335
:101BA000983EDCF3869577956795B795F7959F5F97
:101BB000C9F7880F911D9695879597F90895E1E0EB
:101BC000660F771F881FBB1F621773078407BA074A
:101BD00020F0621B730B840BBA0BEE1F88F7E095A5
:101BE000089504D06894B111B5C0089598D088F0D4
:101BF0009F5790F0B92F9927B751A0F0D1F0660FF9
:101C0000771F881F991F1AF0BA95C9F712C0B13013
:101C100081F09FD0B1E008959CC0672F782F88276E
:101C2000B85F39F0B93FCCF3869577956795B39552
:101C3000D9F73EF490958095709561957F4F8F4FC1
:101C40009F4F0895E89409C097FB3EF490958095C6
:101C5000709561957F4F8F4F9F4F9923A9F0F92F72
:101C600096E9BB279395F695879577956795B795F0
:101C7000F111F8CFFAF4BB0F11F460FF1BC06F5FD6
:101C80007F4F8F4F9F4F16C0882311F096E911C0E8
:101C9000772321F09EE8872F762F05C0662371F009
:101CA00096E8862F70E060E02AF09A95660F771F1D
:101CB000881FDAF7880F9695879597F9089597F911
:101CC0009F6780E870E060E008959FEF80EC0895E2
:101CD00000240A941616170618060906089500240B
:101CE0000A9412161306140605060895092E039485
:101CF000000C11F4882352F0BB0F40F4BF2B11F4F9
:101D000060FF04C06F5F7F4F8F4F9F4F089557FD57
:101D10009058440F551F59F05F3F71F04795880F59
:101D200097FB991F61F09F3F79F0879508951216F0
:101D300013061406551FF2CF4695F1DF08C016169C
:101D400017061806991FF1CF86957105610508944D
:101D50000895E894BB2766277727CB0197F9089564
:101D60000BD0C4CFB5DF28F0BADF18F0952309F007
:101D7000A6CFABCF1124EECFCADFA0F3959FD1F34E
:101D8000950F50E0551F629FF001729FBB27F00D29
:101D9000B11D639FAA27F00DB11DAA1F649F66277E
:101DA000B00DA11D661F829F2227B00DA11D621FCD
:101DB000739FB00DA11D621F839FA00D611D221F87
:101DC000749F3327A00D611D231F849F600D211D6B
:101DD000822F762F6A2F11249F5750408AF0E1F00E
:101DE00088234AF0EE0FFF1FBB1F661F771F881F57
:101DF00091505040A9F79E3F510570F060CFAACF97
:101E00005F3FECF3983EDCF3869577956795B79541
:101E1000F795E7959F5FC1F7FE2B880F911D96956B
:101E2000879597F90895DB018F939F930E94840F04
:101E3000BF91AF91A29F800D911DA39F900DB29F66
:101E4000900D11240895991B79E004C0991F9617ED
:101E500008F0961B881F7A95C9F78095089597FB1F
:101E6000072E16F4009407D077FD09D00E948F0F3B
:101E700007FC05D03EF4909581959F4F089570958D
:101E800061957F4F0895A1E21A2EAA1BBB1BFD018D
:101E90000DC0AA1FBB1FEE1FFF1FA217B307E40749
:101EA000F50720F0A21BB30BE40BF50B661F771FA1
:101EB000881F991F1A9469F7609570958095909581
:101EC0009B01AC01BD01CF010895052E97FB1EF4C7
:101ED00000940E947C0F57FD07D00E94430F07FC1F
:101EE00003D04EF40C947C0F50954095309521957D
:101EF0003F4F4F4F5F4F0895909580957095619536
:101F00007F4F8F4F9F4F08950E94A90FA59F900D5F
:101F1000B49F900DA49F800D911D11240895AA1BBC
:101F2000BB1B51E107C0AA1FBB1FA617B70710F0C4
:101F3000A61BB70B881F991F5A95A9F780959095F6
:101F4000BC01CD010895EE0FFF1F0590F491E02D27
:101F50000994A29FB001B39FC001A39F700D811D82
:101F60001124911DB29F700D811D1124911D0895A2
:101F7000F894FFCF0100000001005A003700A500CF
:101F800005002D0091005A002D005A003700A500D1
:101F90000500870091005A002D005A003700A50067
:101FA0000500870091005A002D005A003700A50057
:101FB00005002D0091005A002D005A003700A500A1
:101FC000050001415B005D3D002C200073657276C9
:101FD0006F5B00706C61795F6C6561726E65645FE8
:101FE000616374696F6E733A20746F74616C206101
:101FF0006374696F6E733D006D6F76696E672073F1
:1020000070656564203D20006C6561726E5F616380
:1020100074696F6E5F636F756E74203D2000646538
:102020006D6F5F616374696F6E7320636F756E743B
:1020300073203D200053797374656D2052756E6E68
:10204000696E672E2E2E00456E746572206C656178
:10205000726E696E675F6D6F6465212100456E74F5
:10206000657220706C61795F64656D6F5F6D6F6420
:1020700065212100456E746572204A6F7953746939
:10208000636B20436F6E74726F6C204D6F646521BB
:10209000210000000000300AAC0BB209CB09BD09D9
:1020A0000E0AFFFFFFFFFFFFFFFFFFFFFFFFFFFF26
:1020B000FFFFFFFFFFFFFFFFFFFFFFFFFFFFFFFF30
:1020C000FFFFFFFFFFFFFFFFFFFFFFFFFFFFFFFF20
:1020D000FFFFFFFFFFFFFFFFFFFFFFFFFFFFFFFF10
:1020E000FFFFFFFFFFFFFFFFFFFFFFFFFFFFFFFF00
:107E0000112484B714BE81FFF0D085E080938100F7
:107E100082E08093C00088E18093C10086E0809377
:107E2000C20080E18093C4008EE0C9D0259A86E02C
:107E300020E33CEF91E0309385002093840096BBD3
:107E4000B09BFECF1D9AA8958150A9F7CC24DD24C4
:107E500088248394B5E0AB2EA1E19A2EF3E0BF2EE7
:107E6000A2D0813461F49FD0082FAFD0023811F036
:107E7000013811F484E001C083E08DD089C08234E0
:107E800011F484E103C0853419F485E0A6D080C0E4
:107E9000853579F488D0E82EFF2485D0082F10E0AE
:107EA000102F00270E291F29000F111F8ED06801E7
:107EB0006FC0863521F484E090D080E0DECF843638
:107EC00009F040C070D06FD0082F6DD080E0C81688
:107ED00080E7D80618F4F601B7BEE895C0E0D1E017
:107EE00062D089930C17E1F7F0E0CF16F0E7DF06D8
:107EF00018F0F601B7BEE89568D007B600FCFDCFD4
:107F0000A601A0E0B1E02C9130E011968C91119780
:107F100090E0982F8827822B932B1296FA010C0160
:107F200087BEE89511244E5F5F4FF1E0A038BF0790
:107F300051F7F601A7BEE89507B600FCFDCF97BE46
:107F4000E89526C08437B1F42ED02DD0F82E2BD052
:107F50003CD0F601EF2C8F010F5F1F4F84911BD097
:107F6000EA94F801C1F70894C11CD11CFA94CF0C13
:107F7000D11C0EC0853739F428D08EE10CD085E9AC
:107F80000AD08FE07ACF813511F488E018D01DD067
:107F900080E101D065CF982F8091C00085FFFCCF94
:107FA0009093C60008958091C00087FFFCCF809118
:107FB000C00084FD01C0A8958091C6000895E0E648
:107FC000F0E098E1908380830895EDDF803219F02E
:107FD00088E0F5DFFFCF84E1DECF1F93182FE3DFCA
:107FE0001150E9F7F2DF1F91089580E0E8DFEE27F6
:107FF000FF270994FFFFFFFFFFFFFFFFFFFF0404C0
:00000001FF
